No.     Time               Source                Destination           Protocol Length Info
   3984 12:57:40.398076000 141.11.248.48         141.11.248.110        RTPS2    1360   INFO_TS, DATA(r), DATA(r)

Frame 3984: 1360 bytes on wire (10880 bits), 1360 bytes captured (10880 bits) on interface 0
Linux cooked capture
Internet Protocol Version 4, Src: 141.11.248.48 (141.11.248.48), Dst: 141.11.248.110 (141.11.248.110)
User Datagram Protocol, Src Port: 44422 (44422), Dst Port: 7412 (7412)
Real-Time Publish-Subscribe Wire Protocol 2.x
    Protocol version: 2.1
    vendor: Twin Oaks Computing, Inc.
    guidPrefix=8d0bf830:00000ff7:00000001 { hostId=8d0bf830, appId=00000ff7, counter=00000001 }
    Default port mapping: UNICAST_METATRAFFIC, domainId=0, participantIdx=1
    Submessage: Vendor-specific (0x80)
        submessageId: Vendor-specific (0x80)
        flags: 0x01
        octetsToNextHeader: 28
    Submessage: INFO_TS
        submessageId: INFO_TS (0x09)
        Flags: 0x01 (_ _ _ _ _ _ _ E )
        octetsToNextHeader: 8
        timestamp: 1349866374.967035 sec (1349866374s + 0xf78f9893)
    Submessage: DATA
        submessageId: DATA (0x15)
        Flags: 0x07 (_ _ _ _ _ D Q E )
        octetsToNextHeader: 2040
        Extra flags:: 0000000000000000
        Octets to inline QoS: 16
        readerEntityId: ENTITYID_SEDP_BUILTIN_SUBSCRIPTIONS_READER (0x000004c7)
        writerEntityId: ENTITYID_SEDP_BUILTIN_SUBSCRIPTIONS_WRITER (0x000004c2)
        writerSeqNumber: 2
        inlineQos:
            PID_KEY_HASH: guid: 8d0bf830:00000ff7:00000001:00000107
                parameterId: 0x0070 (PID_KEY_HASH)
                parameterLength: 16
                guid: 8d0bf830:00000ff7:00000001:00000107
            PID_SENTINEL
                parameterId: 0x0001 (PID_SENTINEL)
        serializedData:
            encapsulation kind: PL_CDR_LE
            encapsulation options: 0000
            serializedData:
                PID_ENDPOINT_GUID: GUID=8d0bf830 00000ff7 00000001 00000107: { hostId=8d0bf830, appId=00000ff7, counter=00000001, entityId=00000107 (Application-defined reader (with key): 000001
                    parameterId: 0x005a (PID_ENDPOINT_GUID)
                    parameterLength: 16
                    GUID=8d0bf830 00000ff7 00000001 00000107: { hostId=8d0bf830, appId=00000ff7, counter=00000001, entityId=00000107 (Application-defined reader (with key): 000001
                PID_TOPIC_NAME: com.technicolor.mfl.logConfig.request
                    parameterId: 0x0005 (PID_TOPIC_NAME)
                    parameterLength: 44
                    value: "com.technicolor.mfl.logConfig.request"
                PID_TYPE_NAME: com.technicolor.mfl.logConfig.request
                    parameterId: 0x0007 (PID_TYPE_NAME)
                    parameterLength: 44
                    value: "com.technicolor.mfl.logConfig.request"
                PID_PROTOCOL_VERSION: 2.1
                    parameterId: 0x0015 (PID_PROTOCOL_VERSION)
                    parameterLength: 4
                    protocolVersion: 2.1
                PID_VENDOR_ID: Twin Oaks Computing, Inc.
                    parameterId: 0x0016 (PID_VENDOR_ID)
                    parameterLength: 4
                    vendorId: Twin Oaks Computing, Inc.
                PID_RELIABILITY: RELIABLE_RELIABILITY_QOS
                    parameterId: 0x001a (PID_RELIABILITY)
                    parameterLength: 12
                    kind: RELIABLE_RELIABILITY_QOS
                PID_PARTITION: rebus://e368ddccb122b24e/ff70002/com.technicolor.mfl.logConfig/
                    parameterId: 0x0029 (PID_PARTITION)
                    parameterLength: 108
                    size: 1
                    name: rebus://e368ddccb122b24e/ff70002/com.technicolor.mfl.logConfig/
                PID_EXPECTS_INLINE_QOS: FALSE
                    parameterId: 0x0043 (PID_EXPECTS_INLINE_QOS)
                    parameterLength: 4
                    inline_qos: FALSE
                Unknown (0x8007)
                    parameterId: 0x8007 (unknown 8007)
                    parameterLength: 4
                PID_TYPECODE
                    parameterId: 0x8004 (PID_TYPECODE)
                    parameterLength: 1708
                    struct struct {
                      struct struct {
                        long request_id;
                        struct struct {
                          longlong device_id;  //@key
                          long runtime_id;  //@key
                        } consumer_id;
                        long command_id;
                        long element_id;
                        long target_class_id;
                      } hdr;
                      struct struct {
                        longlong device_id;
                        long runtime_id;
                      } provider_rebus_id;
                      long class_id[3];
                      union union (long) {
                        case -1388635732:
                          struct struct {
                            string<17> primary;
                            string<17> secondary;
                          } namespace_rebus_key:0;
                        case -234597089:
                          struct struct {
                            long type;
                          } backend_rebus_key:0;
                        case -2:
                          octet dummy:0;
                      } provider_rebus_key;
                      union union (long) {
                        case 1393814663:
                          struct struct {
                            unsigned long logAcceptedLevels[1];
                          } namespace_status:0;
                        case 671359003:
                          struct struct {
                            unsigned long logLevel[1];
                          } namespace_config:0;
                        case -896559878:
                          struct struct {
                            unsigned long logAcceptedLevels[1];
                            string<0> format;
                            long syncMode;
                            union union (long) {
                              case 0:
                                struct struct {
                                  string<0> directory;
                                  boolean flush;
                                  boolean dummy;
                                } files:0;
                              case 1:
                                struct struct {
                                  string<0> directory;
                                  boolean flush;
                                  boolean pidInName;
                                } multifiles:0;
                            } options;
                          } backend_config:0;
                        case -2:
                          octet dummy:0;
                      } body;
                      struct struct {
                        long bm0;
                        long bm1;
                        long bm2;
                        long bm3;
                      } bm;
                    };
                PID_SENTINEL
                    parameterId: 0x0001 (PID_SENTINEL)
    Submessage: DATA
        submessageId: DATA (0x15)
        Flags: 0x07 (_ _ _ _ _ D Q E )
        octetsToNextHeader: 708
        Extra flags:: 0000000000000000
        Octets to inline QoS: 16
        readerEntityId: ENTITYID_SEDP_BUILTIN_SUBSCRIPTIONS_READER (0x000004c7)
        writerEntityId: ENTITYID_SEDP_BUILTIN_SUBSCRIPTIONS_WRITER (0x000004c2)
        writerSeqNumber: 3
        inlineQos:
            PID_KEY_HASH: guid: 8d0bf830:00000ff7:00000001:00000207
                parameterId: 0x0070 (PID_KEY_HASH)
                parameterLength: 16
                guid: 8d0bf830:00000ff7:00000001:00000207
            PID_SENTINEL
                parameterId: 0x0001 (PID_SENTINEL)
        serializedData:
            encapsulation kind: PL_CDR_LE
            encapsulation options: 0000
            serializedData:
                PID_ENDPOINT_GUID: GUID=8d0bf830 00000ff7 00000001 00000207: { hostId=8d0bf830, appId=00000ff7, counter=00000001, entityId=00000207 (Application-defined reader (with key): 000002
                    parameterId: 0x005a (PID_ENDPOINT_GUID)
                    parameterLength: 16
                    GUID=8d0bf830 00000ff7 00000001 00000207: { hostId=8d0bf830, appId=00000ff7, counter=00000001, entityId=00000207 (Application-defined reader (with key): 000002
                PID_TOPIC_NAME: com.technicolor.sdk.authorization.SDKStatus.config
                    parameterId: 0x0005 (PID_TOPIC_NAME)
                    parameterLength: 56
                    value: "com.technicolor.sdk.authorization.SDKStatus.config"
                PID_TYPE_NAME: com.technicolor.sdk.authorization.SDKStatus.config
                    parameterId: 0x0007 (PID_TYPE_NAME)
                    parameterLength: 56
                    value: "com.technicolor.sdk.authorization.SDKStatus.config"
                PID_PROTOCOL_VERSION: 2.1
                    parameterId: 0x0015 (PID_PROTOCOL_VERSION)
                    parameterLength: 4
                    protocolVersion: 2.1
                PID_VENDOR_ID: Twin Oaks Computing, Inc.
                    parameterId: 0x0016 (PID_VENDOR_ID)
                    parameterLength: 4
                    vendorId: Twin Oaks Computing, Inc.
                PID_DURABILITY: TRANSIENT_LOCAL_DURABILITY_QOS
                    parameterId: 0x001d (PID_DURABILITY)
                    parameterLength: 4
                    durability: TRANSIENT_LOCAL_DURABILITY_QOS
                PID_RELIABILITY: RELIABLE_RELIABILITY_QOS
                    parameterId: 0x001a (PID_RELIABILITY)
                    parameterLength: 12
                    kind: RELIABLE_RELIABILITY_QOS
                PID_PARTITION: rebus://*/*/com.technicolor.sdk.authorization/0.0.1;*
                    parameterId: 0x0029 (PID_PARTITION)
                    parameterLength: 64
                    size: 1
                    name: rebus://*/*/com.technicolor.sdk.authorization/0.0.1;*
                PID_EXPECTS_INLINE_QOS: FALSE
                    parameterId: 0x0043 (PID_EXPECTS_INLINE_QOS)
                    parameterLength: 4
                    inline_qos: FALSE
                Unknown (0x8007)
                    parameterId: 0x8007 (unknown 8007)
                    parameterLength: 4
                PID_TYPECODE
                    parameterId: 0x8004 (PID_TYPECODE)
                    parameterLength: 388
                    struct struct {
                      struct struct {
                        struct struct {
                          longlong device_id;  //@key
                          long runtime_id;  //@key
                        } rebus_id;
                        long class_id[3];
                        struct struct {
                          string<65> DeviceID;  //@key
                        } class_key;
                      } rebus_key;
                      struct struct {
                        string<257> FriendlyName;
                      } data;
                    };
                PID_SENTINEL
                    parameterId: 0x0001 (PID_SENTINEL)

Frame (1360 bytes):

0000  00 00 00 01 00 06 00 1e 4f c1 97 c1 00 00 08 00   ........O.......
0010  45 00 05 40 8e 3e 00 b9 40 11 db ff 8d 0b f8 30   E..@.>..@......0
0020  8d 0b f8 6e 12 00 00 00 6c 6f 67 41 63 63 65 70   ...n....logAccep
0030  74 65 64 4c 65 76 65 6c 73 00 00 00 ff ff 00 00   tedLevels.......
0040  0f 00 00 00 10 00 00 00 01 00 00 00 01 00 00 00   ................
0050  04 00 00 00 00 00 1c 00 07 00 00 00 66 6f 72 6d   ............form
0060  61 74 00 00 ff ff 00 00 0d 00 00 00 06 00 00 00   at..............
0070  00 00 00 00 1c 00 00 00 09 00 00 00 73 79 6e 63   ............sync
0080  4d 6f 64 65 00 00 ff ff 00 00 00 00 02 00 00 00   Mode............
0090  00 00 4a 01 08 00 00 00 6f 70 74 69 6f 6e 73 00   ..J.....options.
00a0  00 00 ff ff 00 00 00 00 0b 00 00 00 30 01 00 00   ............0...
00b0  06 00 00 00 75 6e 69 6f 6e 00 00 00 ff ff ff ff   ....union.......
00c0  02 00 00 00 00 00 00 00 02 00 00 00 84 00 00 00   ................
00d0  06 00 00 00 66 69 6c 65 73 00 00 00 01 00 00 00   ....files.......
00e0  00 00 00 00 0a 00 00 00 68 00 00 00 07 00 00 00   ........h.......
00f0  73 74 72 75 63 74 00 00 03 00 00 00 22 00 00 00   struct......"...
0100  0a 00 00 00 64 69 72 65 63 74 6f 72 79 00 00 00   ....directory...
0110  ff ff 00 00 0d 00 00 00 06 00 00 00 00 00 00 00   ................
0120  18 00 00 00 06 00 00 00 66 6c 75 73 68 00 00 00   ........flush...
0130  ff ff 00 00 07 00 00 00 00 00 16 00 06 00 00 00   ................
0140  64 75 6d 6d 79 00 00 00 ff ff 00 00 07 00 00 00   dummy...........
0150  00 00 8a 00 0b 00 00 00 6d 75 6c 74 69 66 69 6c   ........multifil
0160  65 73 00 00 01 00 00 00 01 00 00 00 0a 00 00 00   es..............
0170  6c 00 00 00 07 00 00 00 73 74 72 75 63 74 00 00   l.......struct..
0180  03 00 00 00 22 00 00 00 0a 00 00 00 64 69 72 65   ....".......dire
0190  63 74 6f 72 79 00 00 00 ff ff 00 00 0d 00 00 00   ctory...........
01a0  06 00 00 00 00 00 00 00 18 00 00 00 06 00 00 00   ................
01b0  66 6c 75 73 68 00 00 00 ff ff 00 00 07 00 00 00   flush...........
01c0  00 00 1a 00 0a 00 00 00 70 69 64 49 6e 4e 61 6d   ........pidInNam
01d0  65 00 00 00 ff ff 00 00 07 00 00 00 00 00 1a 00   e...............
01e0  06 00 00 00 64 75 6d 6d 79 00 00 00 01 00 00 00   ....dummy.......
01f0  fe ff ff ff 09 00 00 00 00 00 86 00 03 00 00 00   ................
0200  62 6d 00 00 ff ff 00 00 0a 00 00 00 74 00 00 00   bm..........t...
0210  07 00 00 00 73 74 72 75 63 74 00 00 04 00 00 00   ....struct......
0220  18 00 00 00 04 00 00 00 62 6d 30 00 00 00 ff ff   ........bm0.....
0230  00 00 00 00 02 00 00 00 00 00 16 00 04 00 00 00   ................
0240  62 6d 31 00 00 00 ff ff 00 00 00 00 02 00 00 00   bm1.............
0250  00 00 16 00 04 00 00 00 62 6d 32 00 00 00 ff ff   ........bm2.....
0260  00 00 00 00 02 00 00 00 00 00 16 00 04 00 00 00   ................
0270  62 6d 33 00 00 00 ff ff 00 00 00 00 02 00 00 00   bm3.............
0280  00 00 00 00 01 00 00 00 15 07 c4 02 00 00 10 00   ................
0290  00 00 04 c7 00 00 04 c2 00 00 00 00 03 00 00 00   ................
02a0  70 00 10 00 8d 0b f8 30 00 00 0f f7 00 00 00 01   p......0........
02b0  00 00 02 07 01 00 00 00 00 03 00 00 5a 00 10 00   ............Z...
02c0  8d 0b f8 30 00 00 0f f7 00 00 00 01 00 00 02 07   ...0............
02d0  05 00 38 00 33 00 00 00 63 6f 6d 2e 74 65 63 68   ..8.3...com.tech
02e0  6e 69 63 6f 6c 6f 72 2e 73 64 6b 2e 61 75 74 68   nicolor.sdk.auth
02f0  6f 72 69 7a 61 74 69 6f 6e 2e 53 44 4b 53 74 61   orization.SDKSta
0300  74 75 73 2e 63 6f 6e 66 69 67 00 00 07 00 38 00   tus.config....8.
0310  33 00 00 00 63 6f 6d 2e 74 65 63 68 6e 69 63 6f   3...com.technico
0320  6c 6f 72 2e 73 64 6b 2e 61 75 74 68 6f 72 69 7a   lor.sdk.authoriz
0330  61 74 69 6f 6e 2e 53 44 4b 53 74 61 74 75 73 2e   ation.SDKStatus.
0340  63 6f 6e 66 69 67 00 00 15 00 04 00 02 01 00 00   config..........
0350  16 00 04 00 01 06 00 00 1d 00 04 00 01 00 00 00   ................
0360  1a 00 0c 00 02 00 00 00 00 00 00 00 b8 8d 06 00   ................
0370  29 00 40 00 01 00 00 00 36 00 00 00 72 65 62 75   ).@.....6...rebu
0380  73 3a 2f 2f 2a 2f 2a 2f 63 6f 6d 2e 74 65 63 68   s://*/*/com.tech
0390  6e 69 63 6f 6c 6f 72 2e 73 64 6b 2e 61 75 74 68   nicolor.sdk.auth
03a0  6f 72 69 7a 61 74 69 6f 6e 2f 30 2e 30 2e 31 3b   orization/0.0.1;
03b0  2a 00 00 00 43 00 04 00 00 00 00 00 07 80 04 00   *...C...........
03c0  01 00 00 00 04 80 84 01 0a 00 00 00 7e 01 00 00   ............~...
03d0  07 00 00 00 73 74 72 75 63 74 00 00 02 00 00 00   ....struct......
03e0  16 01 00 00 0a 00 00 00 72 65 62 75 73 5f 6b 65   ........rebus_ke
03f0  79 00 00 00 ff ff 00 00 0a 00 00 00 fa 00 00 00   y...............
0400  07 00 00 00 73 74 72 75 63 74 00 00 03 00 00 00   ....struct......
0410  68 00 00 00 09 00 00 00 72 65 62 75 73 5f 69 64   h.......rebus_id
0420  00 00 ff ff 00 00 00 00 0a 00 00 00 4c 00 00 00   ............L...
0430  07 00 00 00 73 74 72 75 63 74 00 00 02 00 00 00   ....struct......
0440  1c 00 00 00 0a 00 00 00 64 65 76 69 63 65 5f 69   ........device_i
0450  64 00 00 00 ff ff 01 00 11 00 00 00 00 00 1a 00   d...............
0460  0b 00 00 00 72 75 6e 74 69 6d 65 5f 69 64 00 00   ....runtime_id..
0470  ff ff 01 00 02 00 00 00 00 00 2a 00 09 00 00 00   ..........*.....
0480  63 6c 61 73 73 5f 69 64 00 00 ff ff 00 00 00 00   class_id........
0490  0f 00 00 00 10 00 00 00 01 00 00 00 03 00 00 00   ................
04a0  02 00 00 00 00 00 50 00 0a 00 00 00 63 6c 61 73   ......P.....clas
04b0  73 5f 6b 65 79 00 00 00 ff ff 00 00 0a 00 00 00   s_key...........
04c0  36 00 00 00 07 00 00 00 73 74 72 75 63 74 00 00   6.......struct..
04d0  01 00 00 00 22 00 00 00 09 00 00 00 44 65 76 69   ....".......Devi
04e0  63 65 49 44 00 00 ff ff 01 00 00 00 0d 00 00 00   ceID............
04f0  06 00 00 00 41 00 00 00 52 00 00 00 05 00 00 00   ....A...R.......
0500  64 61 74 61 00 00 ff ff 00 00 00 00 0a 00 00 00   data............
0510  3a 00 00 00 07 00 00 00 73 74 72 75 63 74 00 00   :.......struct..
0520  01 00 00 00 26 00 00 00 0d 00 00 00 46 72 69 65   ....&.......Frie
0530  6e 64 6c 79 4e 61 6d 65 00 00 ff ff 00 00 00 00   ndlyName........
0540  0d 00 00 00 06 00 00 00 01 01 00 00 01 00 00 00   ................

Reassembled IPv4 (2804 bytes):

0000  ad 86 1c f4 0a f4 27 03 52 54 50 53 02 01 01 06   ......'.RTPS....
0010  8d 0b f8 30 00 00 0f f7 00 00 00 01 80 01 04 00   ...0............
0020  ec 0a 00 00 09 01 08 00 86 53 75 50 93 98 8f f7   .........SuP....
0030  15 07 f8 07 00 00 10 00 00 00 04 c7 00 00 04 c2   ................
0040  00 00 00 00 02 00 00 00 70 00 10 00 8d 0b f8 30   ........p......0
0050  00 00 0f f7 00 00 00 01 00 00 01 07 01 00 00 00   ................
0060  00 03 00 00 5a 00 10 00 8d 0b f8 30 00 00 0f f7   ....Z......0....
0070  00 00 00 01 00 00 01 07 05 00 2c 00 26 00 00 00   ..........,.&...
0080  63 6f 6d 2e 74 65 63 68 6e 69 63 6f 6c 6f 72 2e   com.technicolor.
0090  6d 66 6c 2e 6c 6f 67 43 6f 6e 66 69 67 2e 72 65   mfl.logConfig.re
00a0  71 75 65 73 74 00 00 00 07 00 2c 00 26 00 00 00   quest.....,.&...
00b0  63 6f 6d 2e 74 65 63 68 6e 69 63 6f 6c 6f 72 2e   com.technicolor.
00c0  6d 66 6c 2e 6c 6f 67 43 6f 6e 66 69 67 2e 72 65   mfl.logConfig.re
00d0  71 75 65 73 74 00 00 00 15 00 04 00 02 01 00 00   quest...........
00e0  16 00 04 00 01 06 00 00 1a 00 0c 00 02 00 00 00   ................
00f0  00 00 00 00 99 99 99 19 29 00 6c 00 01 00 00 00   ........).l.....
0100  63 00 00 00 72 65 62 75 73 3a 2f 2f 65 33 36 38   c...rebus://e368
0110  64 64 63 63 62 31 32 32 62 32 34 65 2f 66 66 37   ddccb122b24e/ff7
0120  30 30 30 32 2f 63 6f 6d 2e 74 65 63 68 6e 69 63   0002/com.technic
0130  6f 6c 6f 72 2e 6d 66 6c 2e 6c 6f 67 43 6f 6e 66   olor.mfl.logConf
0140  69 67 2f 30 2e 32 2e 31 3b 41 50 50 5f 4e 41 4d   ig/0.2.1;APP_NAM
0150  45 3d 65 63 6c 69 70 73 65 26 41 50 50 5f 50 49   E=eclipse&APP_PI
0160  44 3d 34 30 38 37 00 00 43 00 04 00 00 00 00 00   D=4087..C.......
0170  07 80 04 00 01 00 00 00 04 80 ac 06 0a 00 00 00   ................
0180  a4 06 00 00 07 00 00 00 73 74 72 75 63 74 00 00   ........struct..
0190  06 00 00 00 10 01 00 00 04 00 00 00 68 64 72 00   ............hdr.
01a0  00 00 ff ff 00 00 00 00 0a 00 00 00 f8 00 00 00   ................
01b0  07 00 00 00 73 74 72 75 63 74 00 00 05 00 00 00   ....struct......
01c0  1c 00 00 00 0b 00 00 00 72 65 71 75 65 73 74 5f   ........request_
01d0  69 64 00 00 ff ff 00 00 02 00 00 00 00 00 6a 00   id............j.
01e0  0c 00 00 00 63 6f 6e 73 75 6d 65 72 5f 69 64 00   ....consumer_id.
01f0  00 00 ff ff 00 00 00 00 0a 00 00 00 4c 00 00 00   ............L...
0200  07 00 00 00 73 74 72 75 63 74 00 00 02 00 00 00   ....struct......
0210  1c 00 00 00 0a 00 00 00 64 65 76 69 63 65 5f 69   ........device_i
0220  64 00 00 00 ff ff 01 00 11 00 00 00 00 00 1a 00   d...............
0230  0b 00 00 00 72 75 6e 74 69 6d 65 5f 69 64 00 00   ....runtime_id..
0240  ff ff 01 00 02 00 00 00 00 00 1a 00 0b 00 00 00   ................
0250  63 6f 6d 6d 61 6e 64 5f 69 64 00 00 ff ff 00 00   command_id......
0260  02 00 00 00 00 00 1a 00 0b 00 00 00 65 6c 65 6d   ............elem
0270  65 6e 74 5f 69 64 00 00 ff ff 00 00 02 00 00 00   ent_id..........
0280  00 00 22 00 10 00 00 00 74 61 72 67 65 74 5f 63   ..".....target_c
0290  6c 61 73 73 5f 69 64 00 00 00 ff ff 00 00 00 00   lass_id.........
02a0  02 00 00 00 00 00 6e 00 12 00 00 00 70 72 6f 76   ......n.....prov
02b0  69 64 65 72 5f 72 65 62 75 73 5f 69 64 00 00 00   ider_rebus_id...
02c0  ff ff 00 00 0a 00 00 00 4c 00 00 00 07 00 00 00   ........L.......
02d0  73 74 72 75 63 74 00 00 02 00 00 00 1c 00 00 00   struct..........
02e0  0a 00 00 00 64 65 76 69 63 65 5f 69 64 00 00 00   ....device_id...
02f0  ff ff 00 00 11 00 00 00 00 00 1a 00 0b 00 00 00   ................
0300  72 75 6e 74 69 6d 65 5f 69 64 00 00 ff ff 00 00   runtime_id......
0310  02 00 00 00 00 00 2a 00 09 00 00 00 63 6c 61 73   ......*.....clas
0320  73 5f 69 64 00 00 ff ff 00 00 00 00 0f 00 00 00   s_id............
0330  10 00 00 00 01 00 00 00 03 00 00 00 02 00 00 00   ................
0340  00 00 3a 01 13 00 00 00 70 72 6f 76 69 64 65 72   ..:.....provider
0350  5f 72 65 62 75 73 5f 6b 65 79 00 00 ff ff 00 00   _rebus_key......
0360  0b 00 00 00 18 01 00 00 06 00 00 00 75 6e 69 6f   ............unio
0370  6e 00 00 00 ff ff ff ff 02 00 00 00 00 00 00 00   n...............
0380  03 00 00 00 86 00 00 00 14 00 00 00 6e 61 6d 65   ............name
0390  73 70 61 63 65 5f 72 65 62 75 73 5f 6b 65 79 00   space_rebus_key.
03a0  00 00 00 00 01 00 00 00 ac 19 3b ad 0a 00 00 00   ..........;.....
03b0  5a 00 00 00 07 00 00 00 73 74 72 75 63 74 00 00   Z.......struct..
03c0  02 00 00 00 22 00 00 00 08 00 00 00 70 72 69 6d   ....".......prim
03d0  61 72 79 00 00 00 ff ff 00 00 00 00 0d 00 00 00   ary.............
03e0  06 00 00 00 11 00 00 00 22 00 00 00 0a 00 00 00   ........".......
03f0  73 65 63 6f 6e 64 61 72 79 00 00 00 ff ff 00 00   secondary.......
0400  0d 00 00 00 06 00 00 00 11 00 00 00 54 00 00 00   ............T...
0410  12 00 00 00 62 61 63 6b 65 6e 64 5f 72 65 62 75   ....backend_rebu
0420  73 5f 6b 65 79 00 00 00 01 00 00 00 1f 55 04 f2   s_key........U..
0430  0a 00 00 00 2c 00 00 00 07 00 00 00 73 74 72 75   ....,.......stru
0440  63 74 00 00 01 00 00 00 18 00 00 00 05 00 00 00   ct..............
0450  74 79 70 65 00 00 ff ff 00 00 00 00 02 00 00 00   type............
0460  00 00 1a 00 06 00 00 00 64 75 6d 6d 79 00 00 00   ........dummy...
0470  01 00 00 00 fe ff ff ff 09 00 00 00 00 00 1e 03   ................
0480  05 00 00 00 62 6f 64 79 00 00 ff ff 00 00 00 00   ....body........
0490  0b 00 00 00 08 03 00 00 06 00 00 00 75 6e 69 6f   ............unio
04a0  6e 00 00 00 ff ff ff ff 02 00 00 00 00 00 00 00   n...............
04b0  04 00 00 00 70 00 00 00 11 00 00 00 6e 61 6d 65   ....p.......name
04c0  73 70 61 63 65 5f 73 74 61 74 75 73 00 00 00 00   space_status....
04d0  01 00 00 00 87 ec 13 53 0a 00 00 00 48 00 00 00   .......S....H...
04e0  07 00 00 00 73 74 72 75 63 74 00 00 01 00 00 00   ....struct......
04f0  34 00 00 00 12 00 00 00 6c 6f 67 41 63 63 65 70   4.......logAccep
0500  74 65 64 4c 65 76 65 6c 73 00 00 00 ff ff 00 00   tedLevels.......
0510  0f 00 00 00 10 00 00 00 01 00 00 00 01 00 00 00   ................
0520  04 00 00 00 00 00 66 00 11 00 00 00 6e 61 6d 65   ......f.....name
0530  73 70 61 63 65 5f 63 6f 6e 66 69 67 00 00 00 00   space_config....
0540  01 00 00 00 1b 20 04 28 0a 00 00 00 40 00 00 00   ..... .(....@...
0550  07 00 00 00 73 74 72 75 63 74 00 00 01 00 00 00   ....struct......
0560  2c 00 00 00 09 00 00 00 6c 6f 67 4c 65 76 65 6c   ,.......logLevel
0570  00 00 ff ff 00 00 00 00 0f 00 00 00 10 00 00 00   ................
0580  01 00 00 00 01 00 00 00 04 00 00 00 00 00 f2 01   ................
0590  0f 00 00 00 62 61 63 6b 65 6e 64 5f 63 6f 6e 66   ....backend_conf
05a0  69 67 00 00 01 00 00 00 fa 94 8f ca 0a 00 00 00   ig..............
05b0  d0 01 00 00 07 00 00 00 73 74 72 75 63 74 00 00   ........struct..
05c0  04 00 00 00 34 00 00 00 12 00 00 00 6c 6f 67 41   ....4.......logA
05d0  63 63 65 70 74 65 64 4c 65 76 65 6c 73 00 00 00   cceptedLevels...
05e0  ff ff 00 00 0f 00 00 00 10 00 00 00 01 00 00 00   ................
05f0  01 00 00 00 04 00 00 00 00 00 1c 00 07 00 00 00   ................
0600  66 6f 72 6d 61 74 00 00 ff ff 00 00 0d 00 00 00   format..........
0610  06 00 00 00 00 00 00 00 1c 00 00 00 09 00 00 00   ................
0620  73 79 6e 63 4d 6f 64 65 00 00 ff ff 00 00 00 00   syncMode........
0630  02 00 00 00 00 00 4a 01 08 00 00 00 6f 70 74 69   ......J.....opti
0640  6f 6e 73 00 00 00 ff ff 00 00 00 00 0b 00 00 00   ons.............
0650  30 01 00 00 06 00 00 00 75 6e 69 6f 6e 00 00 00   0.......union...
0660  ff ff ff ff 02 00 00 00 00 00 00 00 02 00 00 00   ................
0670  84 00 00 00 06 00 00 00 66 69 6c 65 73 00 00 00   ........files...
0680  01 00 00 00 00 00 00 00 0a 00 00 00 68 00 00 00   ............h...
0690  07 00 00 00 73 74 72 75 63 74 00 00 03 00 00 00   ....struct......
06a0  22 00 00 00 0a 00 00 00 64 69 72 65 63 74 6f 72   ".......director
06b0  79 00 00 00 ff ff 00 00 0d 00 00 00 06 00 00 00   y...............
06c0  00 00 00 00 18 00 00 00 06 00 00 00 66 6c 75 73   ............flus
06d0  68 00 00 00 ff ff 00 00 07 00 00 00 00 00 16 00   h...............
06e0  06 00 00 00 64 75 6d 6d 79 00 00 00 ff ff 00 00   ....dummy.......
06f0  07 00 00 00 00 00 8a 00 0b 00 00 00 6d 75 6c 74   ............mult
0700  69 66 69 6c 65 73 00 00 01 00 00 00 01 00 00 00   ifiles..........
0710  0a 00 00 00 6c 00 00 00 07 00 00 00 73 74 72 75   ....l.......stru
0720  63 74 00 00 03 00 00 00 22 00 00 00 0a 00 00 00   ct......".......
0730  64 69 72 65 63 74 6f 72 79 00 00 00 ff ff 00 00   directory.......
0740  0d 00 00 00 06 00 00 00 00 00 00 00 18 00 00 00   ................
0750  06 00 00 00 66 6c 75 73 68 00 00 00 ff ff 00 00   ....flush.......
0760  07 00 00 00 00 00 1a 00 0a 00 00 00 70 69 64 49   ............pidI
0770  6e 4e 61 6d 65 00 00 00 ff ff 00 00 07 00 00 00   nName...........
0780  00 00 1a 00 06 00 00 00 64 75 6d 6d 79 00 00 00   ........dummy...
0790  01 00 00 00 fe ff ff ff 09 00 00 00 00 00 86 00   ................
07a0  03 00 00 00 62 6d 00 00 ff ff 00 00 0a 00 00 00   ....bm..........
07b0  74 00 00 00 07 00 00 00 73 74 72 75 63 74 00 00   t.......struct..
07c0  04 00 00 00 18 00 00 00 04 00 00 00 62 6d 30 00   ............bm0.
07d0  00 00 ff ff 00 00 00 00 02 00 00 00 00 00 16 00   ................
07e0  04 00 00 00 62 6d 31 00 00 00 ff ff 00 00 00 00   ....bm1.........
07f0  02 00 00 00 00 00 16 00 04 00 00 00 62 6d 32 00   ............bm2.
0800  00 00 ff ff 00 00 00 00 02 00 00 00 00 00 16 00   ................
0810  04 00 00 00 62 6d 33 00 00 00 ff ff 00 00 00 00   ....bm3.........
0820  02 00 00 00 00 00 00 00 01 00 00 00 15 07 c4 02   ................
0830  00 00 10 00 00 00 04 c7 00 00 04 c2 00 00 00 00   ................
0840  03 00 00 00 70 00 10 00 8d 0b f8 30 00 00 0f f7   ....p......0....
0850  00 00 00 01 00 00 02 07 01 00 00 00 00 03 00 00   ................
0860  5a 00 10 00 8d 0b f8 30 00 00 0f f7 00 00 00 01   Z......0........
0870  00 00 02 07 05 00 38 00 33 00 00 00 63 6f 6d 2e   ......8.3...com.
0880  74 65 63 68 6e 69 63 6f 6c 6f 72 2e 73 64 6b 2e   technicolor.sdk.
0890  61 75 74 68 6f 72 69 7a 61 74 69 6f 6e 2e 53 44   authorization.SD
08a0  4b 53 74 61 74 75 73 2e 63 6f 6e 66 69 67 00 00   KStatus.config..
08b0  07 00 38 00 33 00 00 00 63 6f 6d 2e 74 65 63 68   ..8.3...com.tech
08c0  6e 69 63 6f 6c 6f 72 2e 73 64 6b 2e 61 75 74 68   nicolor.sdk.auth
08d0  6f 72 69 7a 61 74 69 6f 6e 2e 53 44 4b 53 74 61   orization.SDKSta
08e0  74 75 73 2e 63 6f 6e 66 69 67 00 00 15 00 04 00   tus.config......
08f0  02 01 00 00 16 00 04 00 01 06 00 00 1d 00 04 00   ................
0900  01 00 00 00 1a 00 0c 00 02 00 00 00 00 00 00 00   ................
0910  b8 8d 06 00 29 00 40 00 01 00 00 00 36 00 00 00   ....).@.....6...
0920  72 65 62 75 73 3a 2f 2f 2a 2f 2a 2f 63 6f 6d 2e   rebus://*/*/com.
0930  74 65 63 68 6e 69 63 6f 6c 6f 72 2e 73 64 6b 2e   technicolor.sdk.
0940  61 75 74 68 6f 72 69 7a 61 74 69 6f 6e 2f 30 2e   authorization/0.
0950  30 2e 31 3b 2a 00 00 00 43 00 04 00 00 00 00 00   0.1;*...C.......
0960  07 80 04 00 01 00 00 00 04 80 84 01 0a 00 00 00   ................
0970  7e 01 00 00 07 00 00 00 73 74 72 75 63 74 00 00   ~.......struct..
0980  02 00 00 00 16 01 00 00 0a 00 00 00 72 65 62 75   ............rebu
0990  73 5f 6b 65 79 00 00 00 ff ff 00 00 0a 00 00 00   s_key...........
09a0  fa 00 00 00 07 00 00 00 73 74 72 75 63 74 00 00   ........struct..
09b0  03 00 00 00 68 00 00 00 09 00 00 00 72 65 62 75   ....h.......rebu
09c0  73 5f 69 64 00 00 ff ff 00 00 00 00 0a 00 00 00   s_id............
09d0  4c 00 00 00 07 00 00 00 73 74 72 75 63 74 00 00   L.......struct..
09e0  02 00 00 00 1c 00 00 00 0a 00 00 00 64 65 76 69   ............devi
09f0  63 65 5f 69 64 00 00 00 ff ff 01 00 11 00 00 00   ce_id...........
0a00  00 00 1a 00 0b 00 00 00 72 75 6e 74 69 6d 65 5f   ........runtime_
0a10  69 64 00 00 ff ff 01 00 02 00 00 00 00 00 2a 00   id............*.
0a20  09 00 00 00 63 6c 61 73 73 5f 69 64 00 00 ff ff   ....class_id....
0a30  00 00 00 00 0f 00 00 00 10 00 00 00 01 00 00 00   ................
0a40  03 00 00 00 02 00 00 00 00 00 50 00 0a 00 00 00   ..........P.....
0a50  63 6c 61 73 73 5f 6b 65 79 00 00 00 ff ff 00 00   class_key.......
0a60  0a 00 00 00 36 00 00 00 07 00 00 00 73 74 72 75   ....6.......stru
0a70  63 74 00 00 01 00 00 00 22 00 00 00 09 00 00 00   ct......".......
0a80  44 65 76 69 63 65 49 44 00 00 ff ff 01 00 00 00   DeviceID........
0a90  0d 00 00 00 06 00 00 00 41 00 00 00 52 00 00 00   ........A...R...
0aa0  05 00 00 00 64 61 74 61 00 00 ff ff 00 00 00 00   ....data........
0ab0  0a 00 00 00 3a 00 00 00 07 00 00 00 73 74 72 75   ....:.......stru
0ac0  63 74 00 00 01 00 00 00 26 00 00 00 0d 00 00 00   ct......&.......
0ad0  46 72 69 65 6e 64 6c 79 4e 61 6d 65 00 00 ff ff   FriendlyName....
0ae0  00 00 00 00 0d 00 00 00 06 00 00 00 01 01 00 00   ................
0af0  01 00 00 00                                       ....
