No.     Time               Source                Destination           Protocol Length Info
   3974 12:57:40.397367000 141.11.248.48         141.11.248.110        RTPS2    664    INFO_TS, DATA(w)

Frame 3974: 664 bytes on wire (5312 bits), 664 bytes captured (5312 bits) on interface 0
Linux cooked capture
Internet Protocol Version 4, Src: 141.11.248.48 (141.11.248.48), Dst: 141.11.248.110 (141.11.248.110)
User Datagram Protocol, Src Port: 44422 (44422), Dst Port: 7414 (7414)
Real-Time Publish-Subscribe Wire Protocol 2.x
    Protocol version: 2.1
    vendor: Twin Oaks Computing, Inc.
    guidPrefix=8d0bf830:00000ff7:00000001 { hostId=8d0bf830, appId=00000ff7, counter=00000001 }
    Default port mapping: UNICAST_METATRAFFIC, domainId=0, participantIdx=2
    Submessage: Vendor-specific (0x80)
        submessageId: Vendor-specific (0x80)
        flags: 0x01
        octetsToNextHeader: 28
    Submessage: INFO_TS
        submessageId: INFO_TS (0x09)
        Flags: 0x01 (_ _ _ _ _ _ _ E )
        octetsToNextHeader: 8
        timestamp: 1349866374.967015 sec (1349866374s + 0xf78e5002)
    Submessage: DATA
        submessageId: DATA (0x15)
        Flags: 0x07 (_ _ _ _ _ D Q E )
        octetsToNextHeader: 2056
        Extra flags:: 0000000000000000
        Octets to inline QoS: 16
        readerEntityId: ENTITYID_SEDP_BUILTIN_PUBLICATIONS_READER (0x000003c7)
        writerEntityId: ENTITYID_SEDP_BUILTIN_PUBLICATIONS_WRITER (0x000003c2)
        writerSeqNumber: 2
        inlineQos:
            PID_KEY_HASH: guid: 8d0bf830:00000ff7:00000001:00000102
                parameterId: 0x0070 (PID_KEY_HASH)
                parameterLength: 16
                guid: 8d0bf830:00000ff7:00000001:00000102
            PID_SENTINEL
                parameterId: 0x0001 (PID_SENTINEL)
        serializedData:
            encapsulation kind: PL_CDR_LE
            encapsulation options: 0000
            serializedData:
                PID_ENDPOINT_GUID: GUID=8d0bf830 00000ff7 00000001 00000102: { hostId=8d0bf830, appId=00000ff7, counter=00000001, entityId=00000102 (Application-defined writer (with key): 000001
                    parameterId: 0x005a (PID_ENDPOINT_GUID)
                    parameterLength: 16
                    GUID=8d0bf830 00000ff7 00000001 00000102: { hostId=8d0bf830, appId=00000ff7, counter=00000001, entityId=00000102 (Application-defined writer (with key): 000001
                PID_TOPIC_NAME: com.technicolor.mfl.logConfig.response
                    parameterId: 0x0005 (PID_TOPIC_NAME)
                    parameterLength: 44
                    value: "com.technicolor.mfl.logConfig.response"
                PID_TYPE_NAME: com.technicolor.mfl.logConfig.response
                    parameterId: 0x0007 (PID_TYPE_NAME)
                    parameterLength: 44
                    value: "com.technicolor.mfl.logConfig.response"
                PID_PROTOCOL_VERSION: 2.1
                    parameterId: 0x0015 (PID_PROTOCOL_VERSION)
                    parameterLength: 4
                    protocolVersion: 2.1
                PID_VENDOR_ID: Twin Oaks Computing, Inc.
                    parameterId: 0x0016 (PID_VENDOR_ID)
                    parameterLength: 4
                    vendorId: Twin Oaks Computing, Inc.
                PID_RELIABILITY: RELIABLE_RELIABILITY_QOS
                    parameterId: 0x001a (PID_RELIABILITY)
                    parameterLength: 12
                    kind: RELIABLE_RELIABILITY_QOS
                PID_PARTITION: rebus://e368ddccb122b24e/ff70002/com.technicolor.mfl.logConfig/
                    parameterId: 0x0029 (PID_PARTITION)
                    parameterLength: 108
                    size: 1
                    name: rebus://e368ddccb122b24e/ff70002/com.technicolor.mfl.logConfig/
                PID_TYPECODE
                    parameterId: 0x8004 (PID_TYPECODE)
                    parameterLength: 1740
                    struct struct {
                      struct struct {
                        long request_id;
                        struct struct {
                          longlong device_id;
                          long runtime_id;
                        } consumer_id;
                        long ret_code;
                        long element_id;
                        long target_class_id;
                        long response_type;  //@key
                      } hdr;
                      struct struct {
                        longlong device_id;
                        long runtime_id;
                      } provider_rebus_id;
                      long class_id[3];
                      union union (long) {
                        case -1388635732:
                          struct struct {
                            string<17> primary;
                            string<17> secondary;
                          } namespace_rebus_key:0;
                        case -234597089:
                          struct struct {
                            long type;
                          } backend_rebus_key:0;
                        case -2:
                          octet dummy:0;
                      } provider_rebus_key;
                      union union (long) {
                        case 1393814663:
                          struct struct {
                            unsigned long logAcceptedLevels[1];
                          } namespace_status:0;
                        case 671359003:
                          struct struct {
                            unsigned long logLevel[1];
                          } namespace_config:0;
                        case -896559878:
                          struct struct {
                            unsigned long logAcceptedLevels[1];
                            string<0> format;
                            long syncMode;
                            union union (long) {
                              case 0:
                                struct struct {
                                  string<0> directory;
                                  boolean flush;
                                  boolean dummy;
                                } files:0;
                              case 1:
                                struct struct {
                                  string<0> directory;
                                  boolean flush;
                                  boolean pidInName;
                                } multifiles:0;
                            } options;
                          } backend_config:0;
                        case -2:
                          octet dummy:0;
                      } body;
                      struct struct {
                        long bm0;
                        long bm1;
                        long bm2;
                        long bm3;
                      } bm;
                    };
                PID_SENTINEL
                    parameterId: 0x0001 (PID_SENTINEL)

Frame (664 bytes):

0000  00 00 00 01 00 06 00 1e 4f c1 97 c1 00 00 08 00   ........O.......
0010  45 00 02 88 8e 3b 00 b9 40 11 de ba 8d 0b f8 30   E....;..@......0
0020  8d 0b f8 6e 73 74 72 75 63 74 00 00 04 00 00 00   ...nstruct......
0030  34 00 00 00 12 00 00 00 6c 6f 67 41 63 63 65 70   4.......logAccep
0040  74 65 64 4c 65 76 65 6c 73 00 00 00 ff ff 00 00   tedLevels.......
0050  0f 00 00 00 10 00 00 00 01 00 00 00 01 00 00 00   ................
0060  04 00 00 00 00 00 1c 00 07 00 00 00 66 6f 72 6d   ............form
0070  61 74 00 00 ff ff 00 00 0d 00 00 00 06 00 00 00   at..............
0080  00 00 00 00 1c 00 00 00 09 00 00 00 73 79 6e 63   ............sync
0090  4d 6f 64 65 00 00 ff ff 00 00 00 00 02 00 00 00   Mode............
00a0  00 00 4a 01 08 00 00 00 6f 70 74 69 6f 6e 73 00   ..J.....options.
00b0  00 00 ff ff 00 00 00 00 0b 00 00 00 30 01 00 00   ............0...
00c0  06 00 00 00 75 6e 69 6f 6e 00 00 00 ff ff ff ff   ....union.......
00d0  02 00 00 00 00 00 00 00 02 00 00 00 84 00 00 00   ................
00e0  06 00 00 00 66 69 6c 65 73 00 00 00 01 00 00 00   ....files.......
00f0  00 00 00 00 0a 00 00 00 68 00 00 00 07 00 00 00   ........h.......
0100  73 74 72 75 63 74 00 00 03 00 00 00 22 00 00 00   struct......"...
0110  0a 00 00 00 64 69 72 65 63 74 6f 72 79 00 00 00   ....directory...
0120  ff ff 00 00 0d 00 00 00 06 00 00 00 00 00 00 00   ................
0130  18 00 00 00 06 00 00 00 66 6c 75 73 68 00 00 00   ........flush...
0140  ff ff 00 00 07 00 00 00 00 00 16 00 06 00 00 00   ................
0150  64 75 6d 6d 79 00 00 00 ff ff 00 00 07 00 00 00   dummy...........
0160  00 00 8a 00 0b 00 00 00 6d 75 6c 74 69 66 69 6c   ........multifil
0170  65 73 00 00 01 00 00 00 01 00 00 00 0a 00 00 00   es..............
0180  6c 00 00 00 07 00 00 00 73 74 72 75 63 74 00 00   l.......struct..
0190  03 00 00 00 22 00 00 00 0a 00 00 00 64 69 72 65   ....".......dire
01a0  63 74 6f 72 79 00 00 00 ff ff 00 00 0d 00 00 00   ctory...........
01b0  06 00 00 00 00 00 00 00 18 00 00 00 06 00 00 00   ................
01c0  66 6c 75 73 68 00 00 00 ff ff 00 00 07 00 00 00   flush...........
01d0  00 00 1a 00 0a 00 00 00 70 69 64 49 6e 4e 61 6d   ........pidInNam
01e0  65 00 00 00 ff ff 00 00 07 00 00 00 00 00 1a 00   e...............
01f0  06 00 00 00 64 75 6d 6d 79 00 00 00 01 00 00 00   ....dummy.......
0200  fe ff ff ff 09 00 00 00 00 00 86 00 03 00 00 00   ................
0210  62 6d 00 00 ff ff 00 00 0a 00 00 00 74 00 00 00   bm..........t...
0220  07 00 00 00 73 74 72 75 63 74 00 00 04 00 00 00   ....struct......
0230  18 00 00 00 04 00 00 00 62 6d 30 00 00 00 ff ff   ........bm0.....
0240  00 00 00 00 02 00 00 00 00 00 16 00 04 00 00 00   ................
0250  62 6d 31 00 00 00 ff ff 00 00 00 00 02 00 00 00   bm1.............
0260  00 00 16 00 04 00 00 00 62 6d 32 00 00 00 ff ff   ........bm2.....
0270  00 00 00 00 02 00 00 00 00 00 16 00 04 00 00 00   ................
0280  62 6d 33 00 00 00 ff ff 00 00 00 00 02 00 00 00   bm3.............
0290  00 00 00 00 01 00 00 00                           ........

Reassembled IPv4 (2108 bytes):

0000  ad 86 1c f6 08 3c 3f db 52 54 50 53 02 01 01 06   .....<?.RTPS....
0010  8d 0b f8 30 00 00 0f f7 00 00 00 01 80 01 04 00   ...0............
0020  34 08 00 00 09 01 08 00 86 53 75 50 02 50 8e f7   4........SuP.P..
0030  15 07 08 08 00 00 10 00 00 00 03 c7 00 00 03 c2   ................
0040  00 00 00 00 02 00 00 00 70 00 10 00 8d 0b f8 30   ........p......0
0050  00 00 0f f7 00 00 00 01 00 00 01 02 01 00 00 00   ................
0060  00 03 00 00 5a 00 10 00 8d 0b f8 30 00 00 0f f7   ....Z......0....
0070  00 00 00 01 00 00 01 02 05 00 2c 00 27 00 00 00   ..........,.'...
0080  63 6f 6d 2e 74 65 63 68 6e 69 63 6f 6c 6f 72 2e   com.technicolor.
0090  6d 66 6c 2e 6c 6f 67 43 6f 6e 66 69 67 2e 72 65   mfl.logConfig.re
00a0  73 70 6f 6e 73 65 00 00 07 00 2c 00 27 00 00 00   sponse....,.'...
00b0  63 6f 6d 2e 74 65 63 68 6e 69 63 6f 6c 6f 72 2e   com.technicolor.
00c0  6d 66 6c 2e 6c 6f 67 43 6f 6e 66 69 67 2e 72 65   mfl.logConfig.re
00d0  73 70 6f 6e 73 65 00 00 15 00 04 00 02 01 00 00   sponse..........
00e0  16 00 04 00 01 06 00 00 1a 00 0c 00 02 00 00 00   ................
00f0  00 00 00 00 99 99 99 19 29 00 6c 00 01 00 00 00   ........).l.....
0100  63 00 00 00 72 65 62 75 73 3a 2f 2f 65 33 36 38   c...rebus://e368
0110  64 64 63 63 62 31 32 32 62 32 34 65 2f 66 66 37   ddccb122b24e/ff7
0120  30 30 30 32 2f 63 6f 6d 2e 74 65 63 68 6e 69 63   0002/com.technic
0130  6f 6c 6f 72 2e 6d 66 6c 2e 6c 6f 67 43 6f 6e 66   olor.mfl.logConf
0140  69 67 2f 30 2e 32 2e 31 3b 41 50 50 5f 4e 41 4d   ig/0.2.1;APP_NAM
0150  45 3d 65 63 6c 69 70 73 65 26 41 50 50 5f 50 49   E=eclipse&APP_PI
0160  44 3d 34 30 38 37 00 00 04 80 cc 06 0a 00 00 00   D=4087..........
0170  c4 06 00 00 07 00 00 00 73 74 72 75 63 74 00 00   ........struct..
0180  06 00 00 00 30 01 00 00 04 00 00 00 68 64 72 00   ....0.......hdr.
0190  00 00 ff ff 00 00 00 00 0a 00 00 00 18 01 00 00   ................
01a0  07 00 00 00 73 74 72 75 63 74 00 00 06 00 00 00   ....struct......
01b0  1c 00 00 00 0b 00 00 00 72 65 71 75 65 73 74 5f   ........request_
01c0  69 64 00 00 ff ff 00 00 02 00 00 00 00 00 6a 00   id............j.
01d0  0c 00 00 00 63 6f 6e 73 75 6d 65 72 5f 69 64 00   ....consumer_id.
01e0  00 00 ff ff 00 00 00 00 0a 00 00 00 4c 00 00 00   ............L...
01f0  07 00 00 00 73 74 72 75 63 74 00 00 02 00 00 00   ....struct......
0200  1c 00 00 00 0a 00 00 00 64 65 76 69 63 65 5f 69   ........device_i
0210  64 00 00 00 ff ff 00 00 11 00 00 00 00 00 1a 00   d...............
0220  0b 00 00 00 72 75 6e 74 69 6d 65 5f 69 64 00 00   ....runtime_id..
0230  ff ff 00 00 02 00 00 00 00 00 1a 00 09 00 00 00   ................
0240  72 65 74 5f 63 6f 64 65 00 00 ff ff 00 00 00 00   ret_code........
0250  02 00 00 00 00 00 1a 00 0b 00 00 00 65 6c 65 6d   ............elem
0260  65 6e 74 5f 69 64 00 00 ff ff 00 00 02 00 00 00   ent_id..........
0270  00 00 22 00 10 00 00 00 74 61 72 67 65 74 5f 63   ..".....target_c
0280  6c 61 73 73 5f 69 64 00 00 00 ff ff 00 00 00 00   lass_id.........
0290  02 00 00 00 00 00 1e 00 0e 00 00 00 72 65 73 70   ............resp
02a0  6f 6e 73 65 5f 74 79 70 65 00 00 00 ff ff 01 00   onse_type.......
02b0  02 00 00 00 00 00 6e 00 12 00 00 00 70 72 6f 76   ......n.....prov
02c0  69 64 65 72 5f 72 65 62 75 73 5f 69 64 00 00 00   ider_rebus_id...
02d0  ff ff 00 00 0a 00 00 00 4c 00 00 00 07 00 00 00   ........L.......
02e0  73 74 72 75 63 74 00 00 02 00 00 00 1c 00 00 00   struct..........
02f0  0a 00 00 00 64 65 76 69 63 65 5f 69 64 00 00 00   ....device_id...
0300  ff ff 00 00 11 00 00 00 00 00 1a 00 0b 00 00 00   ................
0310  72 75 6e 74 69 6d 65 5f 69 64 00 00 ff ff 00 00   runtime_id......
0320  02 00 00 00 00 00 2a 00 09 00 00 00 63 6c 61 73   ......*.....clas
0330  73 5f 69 64 00 00 ff ff 00 00 00 00 0f 00 00 00   s_id............
0340  10 00 00 00 01 00 00 00 03 00 00 00 02 00 00 00   ................
0350  00 00 3a 01 13 00 00 00 70 72 6f 76 69 64 65 72   ..:.....provider
0360  5f 72 65 62 75 73 5f 6b 65 79 00 00 ff ff 00 00   _rebus_key......
0370  0b 00 00 00 18 01 00 00 06 00 00 00 75 6e 69 6f   ............unio
0380  6e 00 00 00 ff ff ff ff 02 00 00 00 00 00 00 00   n...............
0390  03 00 00 00 86 00 00 00 14 00 00 00 6e 61 6d 65   ............name
03a0  73 70 61 63 65 5f 72 65 62 75 73 5f 6b 65 79 00   space_rebus_key.
03b0  00 00 00 00 01 00 00 00 ac 19 3b ad 0a 00 00 00   ..........;.....
03c0  5a 00 00 00 07 00 00 00 73 74 72 75 63 74 00 00   Z.......struct..
03d0  02 00 00 00 22 00 00 00 08 00 00 00 70 72 69 6d   ....".......prim
03e0  61 72 79 00 00 00 ff ff 00 00 00 00 0d 00 00 00   ary.............
03f0  06 00 00 00 11 00 00 00 22 00 00 00 0a 00 00 00   ........".......
0400  73 65 63 6f 6e 64 61 72 79 00 00 00 ff ff 00 00   secondary.......
0410  0d 00 00 00 06 00 00 00 11 00 00 00 54 00 00 00   ............T...
0420  12 00 00 00 62 61 63 6b 65 6e 64 5f 72 65 62 75   ....backend_rebu
0430  73 5f 6b 65 79 00 00 00 01 00 00 00 1f 55 04 f2   s_key........U..
0440  0a 00 00 00 2c 00 00 00 07 00 00 00 73 74 72 75   ....,.......stru
0450  63 74 00 00 01 00 00 00 18 00 00 00 05 00 00 00   ct..............
0460  74 79 70 65 00 00 ff ff 00 00 00 00 02 00 00 00   type............
0470  00 00 1a 00 06 00 00 00 64 75 6d 6d 79 00 00 00   ........dummy...
0480  01 00 00 00 fe ff ff ff 09 00 00 00 00 00 1e 03   ................
0490  05 00 00 00 62 6f 64 79 00 00 ff ff 00 00 00 00   ....body........
04a0  0b 00 00 00 08 03 00 00 06 00 00 00 75 6e 69 6f   ............unio
04b0  6e 00 00 00 ff ff ff ff 02 00 00 00 00 00 00 00   n...............
04c0  04 00 00 00 70 00 00 00 11 00 00 00 6e 61 6d 65   ....p.......name
04d0  73 70 61 63 65 5f 73 74 61 74 75 73 00 00 00 00   space_status....
04e0  01 00 00 00 87 ec 13 53 0a 00 00 00 48 00 00 00   .......S....H...
04f0  07 00 00 00 73 74 72 75 63 74 00 00 01 00 00 00   ....struct......
0500  34 00 00 00 12 00 00 00 6c 6f 67 41 63 63 65 70   4.......logAccep
0510  74 65 64 4c 65 76 65 6c 73 00 00 00 ff ff 00 00   tedLevels.......
0520  0f 00 00 00 10 00 00 00 01 00 00 00 01 00 00 00   ................
0530  04 00 00 00 00 00 66 00 11 00 00 00 6e 61 6d 65   ......f.....name
0540  73 70 61 63 65 5f 63 6f 6e 66 69 67 00 00 00 00   space_config....
0550  01 00 00 00 1b 20 04 28 0a 00 00 00 40 00 00 00   ..... .(....@...
0560  07 00 00 00 73 74 72 75 63 74 00 00 01 00 00 00   ....struct......
0570  2c 00 00 00 09 00 00 00 6c 6f 67 4c 65 76 65 6c   ,.......logLevel
0580  00 00 ff ff 00 00 00 00 0f 00 00 00 10 00 00 00   ................
0590  01 00 00 00 01 00 00 00 04 00 00 00 00 00 f2 01   ................
05a0  0f 00 00 00 62 61 63 6b 65 6e 64 5f 63 6f 6e 66   ....backend_conf
05b0  69 67 00 00 01 00 00 00 fa 94 8f ca 0a 00 00 00   ig..............
05c0  d0 01 00 00 07 00 00 00 73 74 72 75 63 74 00 00   ........struct..
05d0  04 00 00 00 34 00 00 00 12 00 00 00 6c 6f 67 41   ....4.......logA
05e0  63 63 65 70 74 65 64 4c 65 76 65 6c 73 00 00 00   cceptedLevels...
05f0  ff ff 00 00 0f 00 00 00 10 00 00 00 01 00 00 00   ................
0600  01 00 00 00 04 00 00 00 00 00 1c 00 07 00 00 00   ................
0610  66 6f 72 6d 61 74 00 00 ff ff 00 00 0d 00 00 00   format..........
0620  06 00 00 00 00 00 00 00 1c 00 00 00 09 00 00 00   ................
0630  73 79 6e 63 4d 6f 64 65 00 00 ff ff 00 00 00 00   syncMode........
0640  02 00 00 00 00 00 4a 01 08 00 00 00 6f 70 74 69   ......J.....opti
0650  6f 6e 73 00 00 00 ff ff 00 00 00 00 0b 00 00 00   ons.............
0660  30 01 00 00 06 00 00 00 75 6e 69 6f 6e 00 00 00   0.......union...
0670  ff ff ff ff 02 00 00 00 00 00 00 00 02 00 00 00   ................
0680  84 00 00 00 06 00 00 00 66 69 6c 65 73 00 00 00   ........files...
0690  01 00 00 00 00 00 00 00 0a 00 00 00 68 00 00 00   ............h...
06a0  07 00 00 00 73 74 72 75 63 74 00 00 03 00 00 00   ....struct......
06b0  22 00 00 00 0a 00 00 00 64 69 72 65 63 74 6f 72   ".......director
06c0  79 00 00 00 ff ff 00 00 0d 00 00 00 06 00 00 00   y...............
06d0  00 00 00 00 18 00 00 00 06 00 00 00 66 6c 75 73   ............flus
06e0  68 00 00 00 ff ff 00 00 07 00 00 00 00 00 16 00   h...............
06f0  06 00 00 00 64 75 6d 6d 79 00 00 00 ff ff 00 00   ....dummy.......
0700  07 00 00 00 00 00 8a 00 0b 00 00 00 6d 75 6c 74   ............mult
0710  69 66 69 6c 65 73 00 00 01 00 00 00 01 00 00 00   ifiles..........
0720  0a 00 00 00 6c 00 00 00 07 00 00 00 73 74 72 75   ....l.......stru
0730  63 74 00 00 03 00 00 00 22 00 00 00 0a 00 00 00   ct......".......
0740  64 69 72 65 63 74 6f 72 79 00 00 00 ff ff 00 00   directory.......
0750  0d 00 00 00 06 00 00 00 00 00 00 00 18 00 00 00   ................
0760  06 00 00 00 66 6c 75 73 68 00 00 00 ff ff 00 00   ....flush.......
0770  07 00 00 00 00 00 1a 00 0a 00 00 00 70 69 64 49   ............pidI
0780  6e 4e 61 6d 65 00 00 00 ff ff 00 00 07 00 00 00   nName...........
0790  00 00 1a 00 06 00 00 00 64 75 6d 6d 79 00 00 00   ........dummy...
07a0  01 00 00 00 fe ff ff ff 09 00 00 00 00 00 86 00   ................
07b0  03 00 00 00 62 6d 00 00 ff ff 00 00 0a 00 00 00   ....bm..........
07c0  74 00 00 00 07 00 00 00 73 74 72 75 63 74 00 00   t.......struct..
07d0  04 00 00 00 18 00 00 00 04 00 00 00 62 6d 30 00   ............bm0.
07e0  00 00 ff ff 00 00 00 00 02 00 00 00 00 00 16 00   ................
07f0  04 00 00 00 62 6d 31 00 00 00 ff ff 00 00 00 00   ....bm1.........
0800  02 00 00 00 00 00 16 00 04 00 00 00 62 6d 32 00   ............bm2.
0810  00 00 ff ff 00 00 00 00 02 00 00 00 00 00 16 00   ................
0820  04 00 00 00 62 6d 33 00 00 00 ff ff 00 00 00 00   ....bm3.........
0830  02 00 00 00 00 00 00 00 01 00 00 00               ............
